S00F00006D7075363035302E73726563F8
S11300000C94C8000C94E5000C94E5000C94E500F5
S11300100C94E5000C94E5000C94E5020C94E500C6
S11300200C94E5000C94E5000C94E5000C94E500B8
S11300300C94E5000C94E5000C94E5000C94E500A8
S11300400C94E5000C94E5000C94E5000C94E50098
S11300500C94E5000C94E5000C94E5000C94E50088
S11300600C94E5000C94E500084AD73B3BCE016EA6
S113007084BCBFFDC12F3D6C74319ABD56833DDAFB
S11300803D00C77F11BED9E4BB4C3E916BAAAABE0A
S1130090000000803F0000407A10F35A00A0724E26
S11300A018090010A5D4E80000E87648170000E419
S11300B00B54020000CA9A3B000000E1F505000061
S11300C080969800000040420F000000A0860100C6
S11300D00000102700000000E80300000000640096
S11300E0000000000A000000000001000000000001
S11300F02C76D888DC674F0823DFC1DFAE59E1B125
S1130100B796E5E3E453C63AE651997696E8E6C233
S11301108426EB898C9B62ED407C6FFCEFBC9C9F3A
S113012040F2BAA56FA5F490055A2AF75C936B6C5C
S1130130F9676DC11BFCE0E40D47FEF520E6B50050
S1130140D0ED902E0300943577050080841E0800BE
S113015000204E0A000000C80C333333330F986E6E
S113016012831141EF8D2114893BE65516CFFEE62B
S1130170DB18D1844B381BF77C1D901DA4BBE424F1
S1130180203284725E228100C9F124ECA1E53D276E
S113019011241FBECFEFD8E0DEBFCDBF12E0A0E038
S11301A0B1E0EAE8F9E102C005900D92AC34B10780
S11301B0D9F722E0ACE4B2E001C01D92A03AB20744
S11301C0E1F70E942F010C94C30C0C940000809161
S11301D0BC008823E4F7089584EA8093BC000E945D
S11301E0E700089584E98093BC00089584EC80932B
S11301F0BC000E94E7008091BB00089584E88093CE
S1130200BC000E94E7008091BB0008958093BB006E
S113021084E88093BC000E94E7000895F894A895B0
S113022084B7877F84BFE0E6F0E0808188618083C3
S1130230108278940895F894A895E0E6F0E088E1B7
S1130240808389E2808380818064808378940895A8
S113025083B7846083BF83B7816083BF0895CF93DE
S1130260DF93CDB7DEB7E1970FB6F894DEBF0FBECC
S1130270CDBF0E940E010E94A00480E091E0909303
S11302809D0280939C0289E391E00E9499078EE08D
S113029091E00E94990741E06BE680ED0E94FA022A
S11302A040E16CE180ED0E94FA0241E06BE180EDF7
S11302B00E94FA020E940E0388ED91E00E949907C1
S11302C02FEF89E698E1215080409040E1F700C08B
S11302D000000E941B01789484E291E00E94990737
S11302E00E943E030E94FD03609196027091970262
S11302F080919802909199028E01035E1F4F22E033
S113030043E00E945C07B801CE0101961C010E94E3
S11303107C073F922F928BE391E09F938F930E94EF
S1130320830760916E0270916F02809170029091C8
S1130330710222E043E00E945C07B801C1010E94FF
S11303407C073F922F9283E491E09F938F930E94C6
S11303508307609186027091870280918802909150
S1130360890222E043E00E945C07B801C1010E94B7
S11303707C073F922F928BE491E09F938F930E948E
S113038083076091920270919302809194029091FC
S1130390950222E043E00E945C07B801C1010E947B
S11303A07C073F922F9283E591E09F938F930E9465
S11303B0830760918E0270918F02809190029091D8
S11303C0910222E043E00E945C07B801C1010E944F
S11303D07C073F922F928BE591E09F938F930E942D
S11303E0830760916A0270916B0280916C02909114
S11303F06D0222E043E00E945C07B801C1010E9443
S11304007C073F922F9283E691E09F938F930E9403
S1130410830760917A0270917B0280917C029091B3
S11304207D0222E043E00E945C07B801C1010E9402
S11304307C073F922F928BE691E09F938F930E94CB
S11304408307C0906E02D0906F02E0907002F0902B
S113045071024090960250909702609098027090BA
S11304609902A3019201C301B2010E9490064B01BB
S11304705C0160918602709187028091880290915C
S113048089029B01AC010E9490066EA77FA788ABEE
S113049099AB9B01AC01C501B4010E94C6040E9442
S11304A003079B01AC01C701B6010E9461050E94CC
S11304B0320524EF3EEF4EE85CE30E9461054B01F8
S11304C05C0160934C0270934D0280934E029093B2
S11304D04F02A7019601C701B6010E9490069B0135
S11304E0AC016EA57FA588A999A90E94C6040E94A3
S11304F003079B01AC01C301B2010E9461050E9484
S11305003205905824EF3EEF4EE85CE30E9461050B
S1130510609350027093510280935202909353025D
S113052022E043E0C501B4010E945C07B801C101A7
S11305300E947C073F922F9284E791E09F938F93D0
S11305400E9483070FB6F894DEBF0FBECDBF609143
S1130550500270915102809152029091530222E014
S113056043E00E945C07B801C1010E947C073F92EE
S11305702F928EE791E09F938F930E94830788EDDB
S113058091E00E9499078AE891E00E9499070E94ED
S113059028010F900F900F900F9090E008C084B73F
S11305A084BF84B78F79806484BF88959F5F9230BD
S11305B0B0F383B78E7F83BF88EB91E00E949907E5
S11305C083ED91E00E9499078BCE1F920F920FB694
S11305D00F9211248F93EF93FF93E0E6F0E0808174
S11305E080648083FF91EF918F910F900FBE0F90E5
S11305F01F901895CF93DF93D62FC42F0E94EC0041
S113060080ED0E9406018D2F0E9406018C2F0E940E
S113061006010E94F200DF91CF910895CF930E94CA
S1130620EC0080ED0E94060185E70E9406010E940D
S1130630EC0081ED0E9406010E94FE00C82F0E947A
S1130640F200C83669F41F92CF9388E092E09F933A
S11306508F930E9483070F900F900F900F900CC000
S11306601F92CF9384E392E09F938F930E9483071A
S11306700F900F900F900F90CF9108950F931F93A9
S1130680CF93DF930E94EC0080ED0E9406018BE380
S11306900E9406012FE986E891E0215080409040B5
S11306A0E1F700C000000E94EC0081ED0E94060109
S11306B0C0E009C00C2F10E00E94F600F801EC5ACB
S11306C0FD4F8083CF5FCD30A8F30E94FE00C4E5C8
S11306D0D2E08D870E94F200688170E0762F662751
S11306E08981682B072E000C880B990B0E94D50575
S11306F060937E0270937F028093800290938102C4
S11307006A8170E0762F66278B81682B072E000C98
S1130710880B990B0E94D50560936602709367025B
S113072080936802909369026C8170E0762F66274B
S11307308D81682B072E000C880B990B0E94D50520
S113074060938A0270938B0280938C0290938D0243
S11307506E8170E0762F66278F81682B072E000C40
S1130760880B990B0E94D5056093720270937302F3
S11307708093740290937502688570E0762F6627E3
S11307808985682B072E000C880B990B0E94D505D0
S11307906093760270937702809378029093790243
S11307A06A8570E0762F66278B85682B072E000CF0
S11307B0880B990B0E94D505609382027093830283
S11307C080938402909385026C8570E0762F66276F
S11307D08D85682B072E000C880B990B0E94D5057C
S11307E06093620270936302809364029093650243
S11307F0DF91CF911F910F9108950E943E0320E055
S113080030E040E859E360917E0270917F0280916C
S11308108002909181020E949006609396027093E8
S11308209702809398029093990220E030E040E888
S113083059E3609166027091670280916802909119
S113084069020E94900660936E0270936F02809317
S113085070029093710220E030E040E859E3609127
S11308608A0270918B0280918C0290918D020E9479
S11308709006609386027093870280938802909317
S11308808902609172027091730280917402909156
S1130890750220E030E04AEA53E40E94610528EB47
S11308A03EE142E152E40E94C604609392027093D6
S11308B093028093940290939502609176027091D2
S11308C07702809178029091790220E030E043E849
S11308D052E40E94610560938E0270938F028093AC
S11308E090029093910260918202709183028091B0
S11308F084029091850220E030E043E852E40E94B3
S1130900610560936A0270936B0280936C0290930A
S11309106D02609162027091630280916402909111
S1130920650220E030E043E852E40E9461056093F0
S11309307A0270937B0280937C0290937D020895E7
S11309401092C50083E38093C400E1ECF0E0808161
S113095088618083E2ECF0E0808186608083089582
S11309609091C00095FFFCCF8093C6000895CF936B
S1130970C82F8A3019F48DE00E94B0048C2F0E9495
S1130980B00480E090E0CF9108955058BB27AA2787
S11309900E94DD040C944E060E94400638F00E942A
S11309A0470620F039F49F3F19F426F40C941606F8
S11309B00EF4E095E7FB0C941006E92F0E945F0605
S11309C058F3BA17620773078407950720F079F480
S11309D0A6F50C9481060EF4E0950B2EBA2FA02DEB
S11309E00B01B90190010C01CA01A0011124FF27D8
S11309F0591B99F0593F50F4503E68F11A16F040D3
S1130A00A22F232F342F4427585FF3CF46953795D1
S1130A102795A795F0405395C9F77EF41F16BA0B96
S1130A20620B730B840BBAF09150A1F0FF0FBB1F44
S1130A30661F771F881FC2F70EC0BA0F621F731F8D
S1130A40841F48F4879577956795B795F7959E3FEA
S1130A5008F0B0CF9395880F08F09927EE0F97957B
S1130A6087950895DF93DD27B92FBF7740E85FE3CB
S1130A701616170648075B0718F4D92F0E94880634
S1130A809F938F937F936F930E944307E8E6F0E070
S1130A900E9419060E944E062F913F914F915F913B
S1130AA00E94A306DD2351F09058A2EA2AED3FE00C
S1130AB049EC5FE3D0785D270E94DD04DF910C945C
S1130AC04E060E9475050C944E060E94470658F087
S1130AD00E94400640F029F45F3F29F00C94100670
S1130AE051110C9482060C9416060E945F0668F35A
S1130AF09923B1F3552391F3951B550BBB27AA27D3
S1130B0062177307840738F09F5F5F4F220F331F0C
S1130B10441FAA1FA9F335D00E2E3AF0E0E832D0D4
S1130B2091505040E695001CCAF72BD0FE2F29D0D7
S1130B30660F771F881FBB1F261737074807AB07A9
S1130B40B0E809F0BB0B802DBF01FF2793585F4F1E
S1130B503AF09E3F510578F00C9410060C948206EE
S1130B605F3FE4F3983ED4F3869577956795B79500
S1130B70F7959F5FC9F7880F911D9695879597F90B
S1130B800895E1E0660F771F881FBB1F6217730784
S1130B908407BA0720F0621B730B840BBA0BEE1F99
S1130BA088F7E0950895E89409C097FB3EF4909582
S1130BB08095709561957F4F8F4F9F4F9923A9F032
S1130BC0F92F96E9BB279395F695879577956795C1
S1130BD0B795F111F8CFFAF4BB0F11F460FF1BC005
S1130BE06F5F7F4F8F4F9F4F16C0882311F096E998
S1130BF011C0772321F09EE8872F762F05C0662346
S1130C0071F096E8862F70E060E02AF09A95660FFE
S1130C10771F881FDAF7880F9695879597F90895B7
S1130C2097F99F6780E870E060E008959FEF80EC9B
S1130C300895DF93CF931F930F93FF92EF92DF9268
S1130C407B018C01689406C0DA2EEF010E94A30692
S1130C50FE01E894A5912591359145915591A6F30E
S1130C60EF010E94DD04FE019701A801DA9469F7FF
S1130C70DF90EF90FF900F911F91CF91DF91089536
S1130C8000240A9416161706180609060895002467
S1130C900A9412161306140605060895092E0394E1
S1130CA0000C11F4882352F0BB0F40F4BF2B11F455
S1130CB060FF04C06F5F7F4F8F4F9F4F089557FDB4
S1130CC09058440F551F59F05F3F71F04795880FB6
S1130CD097FB991F61F09F3F79F08795089512164D
S1130CE013061406551FF2CF4695F1DF08C01616F9
S1130CF017061806991FF1CF8695710561050894AA
S1130D000895E894BB2766277727CB0197F90895C0
S1130D109B01AC0160E070E080E89FE30C94610506
S1130D200E94A3060C944E060E94400638F00E94CE
S1130D30470620F0952311F00C9410060C94160627
S1130D4011240C9482060E945F0670F3959FC1F3F0
S1130D50950F50E0551F629FF001729FBB27F00D65
S1130D60B11D639FAA27F00DB11DAA1F649F6627BA
S1130D70B00DA11D661F829F2227B00DA11D621F09
S1130D80739FB00DA11D621F839FA00D611D221FC3
S1130D90749F3327A00D611D231F849F600D211DA7
S1130DA0822F762F6A2F11249F5750409AF0F1F02A
S1130DB088234AF0EE0FFF1FBB1F661F771F881F93
S1130DC091505040A9F79E3F510580F00C941006B5
S1130DD00C9482065F3FE4F3983ED4F386957795AE
S1130DE06795B795F795E7959F5FC1F7FE2B880F39
S1130DF0911D9695879597F9089519F416F40C9416
S1130E0016060C9447070E946706B8F39923C9F3A2
S1130E10B6F39F57550B87FF0E9455070024A0E6A1
S1130E2040EA900180585695979528F4805C660FA7
S1130E30771F881F20F026173707480730F4621BF6
S1130E40730B840B202931294A2BA69517940794F8
S1130E50202531254A2758F7660F771F881F20F071
S1130E6026173707480730F4620B730B840B200DE9
S1130E70311D411DA09581F7B901842F9158880F28
S1130E809695879508959B01AC010C9490069F3F1D
S1130E9031F0915020F4879577956795B795880F31
S1130EA0911D9695879597F9089591505040660F36
S1130EB0771F881FD2F70895EF920F931F93CF9354
S1130EC0DF93E80147FD02C034E001C034E1042EA1
S1130ED0000C550B57FF03C0519541955109E32E62
S1130EE0022F242FAE010E94AA09CE01DF91CF91D7
S1130EF01F910F91EF900895FB01DC0101900D9279
S1130F000020E1F70895A0E0B0E0E9E8F7E00C94F0
S1130F109C0CAE014B5F5F4FFA0161917191AF017F
S1130F2080919C0290919D020E94C907E2E00C947A
S1130F30B80C0F931F93CF93DF93E0919C02F09131
S1130F409D02238121FF1BC08C01D0E0C0E0F80189
S1130F5081918F0160919C0270919D02DB01189632
S1130F60ED91FC911997882331F00995892B79F338
S1130F70DFEFCFEFECCF8AE00995892B19F08FEFE3
S1130F809FEF02C08D2F9C2FDF91CF911F910F9166
S1130F900895ABE0B0E0EFECF7E00C948C0C6C013E
S1130FA07B018A01FC0117821682838181FFCCC1F7
S1130FB0CE0101963C01F6019381F70193FD8591E1
S1130FC093FF81917F01882309F4BAC1853239F4F2
S1130FD093FD859193FF81917F01853229F4B601B8
S1130FE090E00E94F20BE7CF912C212C312CFFE1F1
S1130FF0F315D8F08B3279F038F4803279F08332FB
S1131000A1F4232D20611DC08D3261F0803369F479
S1131010232D216016C0832D8260382EE32DE460D9
S11310203E2E2AC0F32DF8601DC037FC2DC020EDE4
S1131030280F2A3040F08E32B9F436FC81C1232DBA
S11310402064322E19C036FE06C08AE0989E200D18
S11310501124922E11C0EAE02E9E200D1124222E7E
S1131060F32DF0623F2E08C08C3621F4832D806866
S1131070382E02C0883641F4F70193FD859193FF21
S113108081917F018111B3CF982F9F7D9554933027
S113109028F40C5F1F4F9FE399830DC0833631F012
S11310A0833771F0833509F059C021C0F80180817C
S11310B089830E5F1F4F88248394912C530113C09E
S11310C02801F2E04F0E511CF801A080B18036FED9
S11310D003C0692D70E002C06FEF7FEFC5010E946D
S11310E0E70B4C018201F32DFF773F2E16C0280138
S11310F022E0420E511CF801A080B18036FE03C0EC
S1131100692D70E002C06FEF7FEFC5010E94DC0B18
S11311104C01F32DF0683F2E820133FC1BC0822D5D
S113112090E088169906B0F4B60180E290E00E943F
S1131130F20B2A94F4CFF50137FC859137FE8191A7
S11311405F01B60190E00E94F20B21102A9421E085
S1131150821A91088114910471F7E8C0843611F061
S1131160893641F5F80137FE07C0608171818281BB
S113117093810C5F1F4F08C060817181072E000CA2
S1131180880B990B0E5F1F4FF32DFF763F2E97FFB1
S113119009C090958095709561957F4F8F4F9F4FB3
S11311A0F0683F2E2AE030E0A3010E942E0C882E26
S11311B0861845C0853731F4232D2F7EB22E2AE0C0
S11311C030E025C0932D997FB92E8F36C1F018F4E5
S11311D0883579F0B5C0803719F0883721F0B0C070
S11311E0E92FE061BE2EB4FE0DC0FB2DF460BF2ECE
S11311F009C034FE0AC0292F2660B22E06C028E09A
S113120030E005C020E130E002C020E132E0F80126
S1131210B7FE07C060817181828193810C5F1F4F8B
S113122006C06081718180E090E00E5F1F4FA301D2
S11312300E942E0C882E8618FB2DFF773F2E36FE3B
S11312400DC0232D2E7FA22E891458F434FE0BC01A
S113125032FC09C0832D8E7EA82E05C0B82CA32C89
S113126003C0B82C01C0B92CA4FE0FC0FE01E80DC8
S1131270F11D8081803321F49A2D997EA92E09C015
S1131280A2FE06C0B394B39404C08A2D867809F0F4
S1131290B394A3FC11C0A0FE06C0B21488F4280CB9
S11312A0922C9B180EC0B21460F4B60180E290E058
S11312B00E94F20BB394F7CFB21418F42B1802C0A7
S11312C0982C212CA4FE10C0B60180E390E00E946B
S11312D0F20BA2FE17C0A1FC03C088E790E002C095
S11312E088E590E0B6010CC08A2D867859F0A1FEFD
S11312F002C08BE201C080E2A7FC8DE2B60190E05F
S11313000E94F20B891438F4B60180E390E00E9445
S1131310F20B9A94F7CF8A94F301E80DF11D8081C2
S1131320B60190E00E94F20B8110F5CF222009F45F
S113133042CEB60180E290E00E94F20B2A94F6CFEE
S1131340F6018681978102C08FEF9FEF2B96E2E131
S11313500C94A80CA9E0B0E0E0EBF9E00C94920C3A
S11313606A01122FB02E2BE3201720F0FF24F394F0
S1131370F00E02C02CE3F22E0F2D27E0AE014F5FDA
S11313805F4F0E94040BBC014981842F8970813016
S113139031F0E1FC06C0E0FE06C090E205C09DE22B
S11313A003C09BE201C090E05E2D507143FF3CC03E
S11313B0911102C083E001C084E0811718F4212F49
S11313C0281B01C020E051110BC0F601822F30E22E
S11313D0882319F031938150FBCFC20ED11C20E039
S11313E0992329F0D6019C93F60131966F01C60129
S11313F00396E2FE0AC03EE4D6013C9341E4119612
S11314004C93119712963C9306C03EE6F601308346
S113141041E641833283FC01322F40E2332309F455
S113142042C041933150FACF42FF44C0911102C0EF
S113143083E001C084E0811718F4212F281B01C028
S113144020E051110BC0F601822F30E2882319F0FD
S113145031938150FBCFC20ED11C20E0992329F097
S1131460D6019C93F60131966F01C6010396E2FE04
S11314700BC039E4D6013C933EE411963C9311979A
S113148036E412963C9307C039E6F60130833EE613
S1131490318336E63283FC01322F40E2332319F0E4
S11314A041933150FBCFFC01E20FF11D10828EEF0E
S11314B09FEFA6C021E030E0911102C020E030E0AF
S11314C0161617061CF4FB01319602C0E1E0F0E0A9
S11314D02E0F3F1FBB2021F0EB2DF0E0319602C010
S11314E0E0E0F0E02E0F3F1FE12FF0E02E173F0762
S11314F01CF4121B212F01C020E08E2D887159F499
S1131500F601822F30E2882319F031938150FBCF0A
S1131510C20ED11C20E0992329F0D6019C93F60138
S113152031966F0151110BC0F601822F90E388238D
S113153019F091938150FBCFC20ED11C20E00F2DE6
S1131540060F9A81342F307144FF03C0913309F49C
S11315500150101624F4093018F008E001C001E02D
S1131560AB0177FF02C040E050E0FB01E41BF50B48
S1131570A1E0B0E0AC0FBD1FEA0FFB1F8EE2A82E66
S11315804B01801A91080B2D10E01195019511095A
S11315904F3FBFEF5B0721F4D601AC9211966D016A
S11315A0641775072CF08416950614F4818101C024
S11315B080E3415051093196D60111967D014017BF
S11315C0510724F0D6018C936701E2CF64177507A5
S11315D039F4963320F4953319F4311101C081E3C1
S11315E0F6018083F701822F90E2882319F091930A
S11315F08150FBCFF701E20FF11D108280E090E0F3
S11316002996ECE00C94AE0C283008F027E0332740
S1131610DA01990F311D87FD91600096610571050E
S113162039F432602E5F3D9330E32A95E1F7089553
S11316309F3F30F080387105610509F03C5F3C5FE5
S11316403D93913008F08068911DDF93CF931F93F1
S11316500F93FF92EF92192F987F9695E92F969505
S11316609695E90FFF27E051FF4F99273327EE2482
S1131670FF24A701E70105900894079428F4360F86
S1131680E71EF81E491F511D660F771F881F991FFB
S11316900694A1F70590079428F4E70EF81E491F55
S11316A0561FC11D770F881F991F661F0694A1F747
S11316B00590079428F4F80E491F561FC71FD11D23
S11316C0880F991F661F771F0694A1F7059007944A
S11316D020F4490F561FC71FD81F990F661F771F85
S11316E0881F0694A9F784911095177041F0D69538
S11316F0C79557954795F794E7941A95C1F7E6E986
S1131700F0E0689415901591359165919591059047
S11317107FE27395E118F10A430B560BC90BD0090C
S1131720C0F7E10CF11E431F561FC91FD01D7EF4E4
S1131730703311F48A95E6CFE894015030F0080F25
S11317400AF40027021708F4202F2395022F7A3376
S113175028F079E37D932A95E9F710C07D932A95C3
S113176089F6069497956795379517951794E11818
S1131770F10A430B560BC90BD00998F023957E91BF
S113178073957A3308F070E37C932013B8F77E9155
S113179070617D9330F0839571E37D9370E32A95B6
S11317A0E1F71124EF90FF900F911F91CF91DF91FA
S11317B0992787FD90950895FC010590615070402C
S11317C00110D8F7809590958E0F9F1F0895FC0106
S11317D06150704001900110D8F7809590958E0F5C
S11317E09F1F08950F931F93CF93DF93FB012381D2
S11317F021FD03C08FEF9FEF2CC022FF16C046814E
S11318005781248135814217530744F4A081B18163
S11318109D012F5F3F4F318320838C932681378135
S11318202F5F3F4F3783268314C08B01EC01FB01EC
S11318300084F185E02D0995892BE1F6D8011696EF
S11318408D919C911797019617969C938E9316975A
S1131850CE01DF91CF911F910F910895FA01AA272C
S1131860283051F1203181F1E8946F936E7F6E5FDF
S11318707F4F8F4F9F4FAF4FB1E03ED0B4E03CD08D
S1131880670F781F891F9A1FA11D680F791F8A1F70
S1131890911DA11D6A0F711D811D911DA11D20D0D7
S11318A009F468943F912AE0269F11243019305D91
S11318B03193DEF6CF010895462F4770405D419382
S11318C0B3E00FD0C9F7F6CF462F4F70405D4A33CF
S11318D018F0495D31FD4052419302D0A9F7EACF97
S11318E0B4E0A6959795879577956795BA95C9F7C6
S11318F000976105710508959B01AC010A2E0694B9
S11319005795479537952795BA95C9F7620F731F71
S1131910841F951FA01D08952F923F924F925F92AE
S11319206F927F928F929F92AF92BF92CF92DF92EB
S1131930EF92FF920F931F93CF93DF93CDB7DEB750
S1131940CA1BDB0B0FB6F894DEBF0FBECDBF0994E4
S11319502A88398848885F846E847D848C849B843B
S1131960AA84B984C884DF80EE80FD800C811B8149
S1131970AA81B981CE0FD11D0FB6F894DEBF0FBE78
S10D1980CDBFED010895F894FFCFE8
S113198A0000000200000000B704000000004D50EF
S113199A553630353020696E697469616C697A69C3
S11319AA6E670A0052656164696E672066726F6DBC
S11319BA204D5055363035300A0A0041783A2025F0
S11319CA730A0041793A2025730A00417A3A20259C
S11319DA730A00543A202025730A0047783A2025CE
S11319EA730A0047793A2025730A00477A3A202570
S11319FA730A0A00526F6C6C3A2025730A007069E4
S1131A0A7463683A2025730A0A0041746D65676134
S1131A1A3332387020697320656E746572696E6733
S1131A2A20706F77657220646F776E20736C6565BA
S1131A3A70206D6F64650A0057616B696E67207563
S1131A4A702066726F6D20736C656570206D6F64AB
S1131A5A650A003D3D3D3D3D3D3D3D3D3D3D3D3DF0
S1131A6A3D3D3D3D3D3D3D3D3D3D3D3D3D3D3D3D98
S1131A7A3D3D3D3D3D3D3D3D3D3D3D3D3D3D3D3D88
S1131A8A3D3D3D3D3D3D0A00436F6E6E65637465A1
S1131A9A6420746F204D5055363035302077697480
S1131AAA68206465766963652069643A203078251C
S1131ABA780A0A00556E6B6E6F776E2064657669D4
S10F1ACA63652069643A2024780A0A004D
S90301D823
